:02000000A42832
:10000800FF00030E8301A9000A08A8008A017008EE
:10001800A3007108A2007C08A1007D08A0008B1C29
:1000280028284E30FC00EB30FD00FD0B1928FC0B96
:1000380019288B102408003A031D25280130F100E7
:100048002628F1017108A4002308F0002208F10015
:100058002108FC002008FD0028088A00290E8300DA
:06006800FF0E7F0E0900EF
:10006E0083120313F8010830FC00700DF80D7408AC
:10007E00F80203184428F8070310F00DFC0B3C2877
:02008E00080068
:0E0090008312031326088A0025088200080048
:10009E0003308316031386008701880183128701BC
:0800AE00880106158615080003
:1000B60048208A110A128000840AA50A0319A60A92
:0800C600F003031D5B28080094
:1000CE000A3083120313F4002E08F0003720700854
:1000DE00AF000A30F4002E08F00037207808F00048
:1000EE007008B0002E08003A031D802806118611F4
:1000FE0089280A302E0203188728061586118928AA
:10010E00061586150F303005F3000F302F05F2005F
:10011E007208F000F00D7010F00D7010F00D7010F0
:0C012E00F00D70107008730487000800CA
:0E013A008B170B168B1083160313011708008A
:1001480083120313A4014F209D2083122408031D4A
:10015800202908140F30A7002708003C0318E428BA
:100168002408031DE4282708033C0318BE2801308F
:10017800AA00BF28AA012A18C3288812C4288816EA
:100188002708033C031CCB280130AB00CC28AB016B
:100198002B18D0280812D12808162708AE00672087
:1001A8000B30FB002630FC005D30FD00FD0BDA282B
:1001B800FC0BDA28FB0BDA2800000000A703B028A4
:1001C8000810081288151730A7002708003C0318E4
:1001D8001D292408031D1D292708033C0318F72897
:1001E8000130AC00F828AC012C18FC280811FD28B7
:1001F80008152708033C031C04290130AD00052914
:10020800AD012D18092988100A2988142708AE007D
:1002180067200B30FB002630FC005D30FD00FD0B35
:100228001329FC0B1329FB0B132900000000A7035B
:10023800E928881188108F29081C59290330A7003C
:100248002708003C031840292408031940290816E8
:1002580088122708AE0067200B30FB002630FC0010
:100268005D30FD00FD0B3629FC0B3629FB0B3629CA
:1002780000000000A7032429240803195829861C14
:100288005829081088100815881508128812AE0118
:1002980067208230FC00DD30FD00FD0B5129FC0B8E
:1002A80051290000000040298F290330A7002708A2
:1002B800003C0318772924080319772988140811A2
:1002C8002708AE0067200B30FB002630FC005D30AD
:1002D800FD00FD0B6D29FC0B6D29FB0B6D29000042
:1002E8000000A7035B29240803198F29861C8F297E
:1002F800081488100811881108128816AE016720A2
:100308008230FC00DD30FD00FD0B8829FC0B8829BC
:0A031800000000007729A9289029B1
:02400E004A2F37
:00000001FF
