:02000000A32833
:10000800FF00030E8301A9000A08A8008A017008EE
:10001800A3007108A2007C08A1007D08A0008B1C29
:1000280028284E30FC00EB30FD00FD0B1928FC0B96
:1000380019288B102408003A031D25280130F100E7
:100048002628F1017108A4002308F0002208F10015
:100058002108FC002008FD0028088A00290E8300DA
:06006800FF0E7F0E0900EF
:10006E0083120313F8010830FC00700DF80D7408AC
:10007E00F80203184428F8070310F00DFC0B3C2877
:02008E00080068
:0E0090008312031326088A0025088200080048
:10009E0048208A110A128000840AA50A0319A60AAA
:0800AE00F003031D4F280800B8
:1000B6000A3083120313F4002E08F0003720780864
:1000C600F0007008B1000A30F4002E08F000372066
:1000D6007008B2002E08003A031D74280611861116
:1000E6008F280A302E0203187B280130AF007D28A6
:1000F6000130AF002F1881280611822806150A3014
:100106002E02031C89280130B0008A28B00130185D
:100116008E2886118F2886150F303105F3000F3093
:100126003205F2007208F000F00D7010F00D70103C
:10013600F00D7010F00D7010700873048700080041
:1001460083120313A40103308316860087018801F6
:10015600831287018801061586158B170B168B10DF
:100166008316011783122408031D3129881288116A
:1001760008120811881008140F30A7002708003C41
:100186000318F5282408031DF5282708033C03183F
:10019600CF280130AA00D028AA012A18D42888120C
:1001A600D52888162708033C031CDC280130AB0041
:1001B600DD28AB012B18E1280812E22808162708CB
:1001C600AE005B200B30FB002630FC005D30FD00EE
:1001D600FD0BEB28FC0BEB28FB0BEB2800000000CB
:1001E600A703C1280810081288151730A70027088A
:1001F600003C03182E292408031D2E292708033C3A
:10020600031808290130AC000929AC012C180D2966
:1002160008110E2908152708033C031C152901306F
:10022600AD001629AD012D181A2988101B2988142E
:100236002708AE005B200B30FB002630FC005D304B
:10024600FD00FD0B2429FC0B2429FB0B24290000AF
:100256000000A703FA2888118810A029081C6A291B
:100266000330A7002708003C031851292408031966
:100276005129081688122708AE005B200B30FB00B8
:100286002630FC005D30FD00FD0B4729FC0B47299D
:10029600FB0B472900000000A70335292408031992
:1002A6006929861C692908108810081588150812FE
:1002B6008812AE015B208230FC00DD30FD00FD0BB4
:1002C6006229FC0B6229000000005129A029033095
:1002D600A7002708003C0318882924080319882941
:1002E600881408112708AE005B200B30FB0026306F
:1002F600FC005D30FD00FD0B7E29FC0B7E29FB0B0F
:100306007E2900000000A7036C2924080319A029F0
:10031600861CA0290814881008118811081288164E
:10032600AE015B208230FC00DD30FD00FD0B99291B
:0E033600FC0B9929000000008829B528A12998
:02400E004A2F37
:00000001FF
